:020000040800F2
:10000000A804002001010008C1150008131400080D
:10001000BD15000899010008631A000800000000DF
:10002000000000000000000000000000F1150008C2
:100030009D01000800000000C5150008F315000828
:100040001B0100081B0100081B0100081B01000820
:100050001B0100081B0100081B0100089F0100088C
:100060001B0100081B0100081B0100081B01000800
:100070001B0100081B0100081B0100081B010008F0
:100080001B0100081B0100081B0100081B010008E0
:100090001B0100081B0100081B010008A901000842
:1000A0001B0100081B0100081B0100081B010008C0
:1000B0001B0100081B0100081B0100081B010008B0
:1000C0001B0100081B0100081B0100081B010008A0
:1000D0001B0100081B0100081B0100081B01000890
:1000E0001B0100081B0100081B010008DFF80CD0F1
:1000F00000F040F800480047511C0008A804002008
:100100000648804706480047FEE7FEE7FEE7FEE7B1
:10011000FEE7FEE7FEE7FEE7FEE7FEE74B16000818
:10012000ED000008D2B201E000F8012B491EFBD21D
:1001300070470022F6E710B513460A4604461946F2
:10014000FFF7F0FF204610BD30B50B4601460020FA
:100150002022012409E021FA02F59D4205D303FA89
:1001600002F5491B04FA02F52844151EA2F101020A
:10017000F1DC30BD064C074D06E0E06840F00103BD
:1001800094E8070098471034AC42F6D3FFF7B2FF6B
:10019000081D0008281D000800BFFEE7704710B5C5
:1001A000022000F017F810BD10B5802000F012F802
:1001B00010BD72B600BFFEE7022803D10121044A38
:1001C000117004E0802802D10221014A11707047A9
:1001D0000200002010B5044604480068204020B109
:1001E000024804602046FFF7E7FF10BD14040140F9
:1001F0002DE9F8470346002294466EE14FF00108CE
:1002000008FA02F4D1F8008008EA0400A0427DD187
:10021000DFF8DCA2D1F80480A8EB0A09D0453AD077
:1002200014DCB8F1030F50D009DCB8F1000F31D065
:10023000B8F1010F1CD0B8F1020F49D120E0B8F19C
:10024000110F18D0B8F1120F42D11EE0B9F5881F76
:1002500025D006DCB9F5803F20D0B9F5801F37D115
:100260001AE0B9F5001F18D0B9F5041F30D117E016
:10027000D1F80CC02DE0D1F80C8008F1040C28E076
:10028000D1F80C8008F1080C23E0D1F80C8008F1BB
:100290000C0C1EE000BF00BF00BF00BF00BF00BFCE
:1002A000D1F80880B8F1000F02D14FF0040C0BE038
:1002B000D1F80880B8F1010F03D14FF0080C1C6190
:1002C00002E04FF0080C5C6103E04FF0000C00E02E
:1002D00000BF00BFFF2801D8984601E003F10408E1
:1002E0004646FF2802D84FEA820803E0A2F1080838
:1002F0004FEA88084746D6F800804FF00F0909FA00
:1003000007F928EA09080CFA07F900E088E048EA4A
:100310000908C6F80080D1F8048008F08058B8F1C8
:10032000805F7DD100BFDFF8CC81D8F8188048F01D
:100330000108DFF8C091C9F81880C846D8F81880BD
:1003400008F00108CDF8008000BF00BF4FEAB938BF
:100350004FEA920958F829504FEA82784FEA187903
:100360004FF00F0808FA09F825EA0805DFF8888138
:10037000434502D14FF0000816E0DFF88081434585
:1003800002D14FF001080FE0DFF87481434502D13C
:100390004FF0020808E0DFF86C81434502D14FF0CE
:1003A000030801E04FF004084FEA82794FEA197917
:1003B00008FA09F848EA0505DFF84C814FEA920986
:1003C00048F82950D1F8048008F48018B8F5801F47
:1003D0000AD1DFF83881D8F8008048EA0008DFF851
:1003E0002C91C9F8008009E0DFF82081D8F800805E
:1003F00028EA0008DFF81491C9F80080D1F80480D9
:1004000008F40018B8F5001F10D1DFF8008108F1DA
:100410000408D8F8008048EA0008DFF8F09000E00F
:100420005AE009F10409C9F800800DE0DFF8DC802A
:1004300008F10408D8F8008028EA0008DFF8CC901A
:1004400009F10409C9F80080D1F8048008F40038E3
:10045000B8F5003F0ED1DFF8B480A8F10408D8F851
:10046000008048EA0008DFF8A490A9F10409C9F85F
:1004700000800DE0DFF89480A8F10408D8F800802F
:1004800028EA0008DFF88490A9F10409C9F800807F
:10049000D1F8048008F48038B8F5803F0ED1DFF839
:1004A0006C80A8F10808D8F8008048EA0008DFF856
:1004B0005C90A9F10809C9F800800DE0DFF84C80D4
:1004C000A8F10808D8F8008028EA0008DFF83C9076
:1004D000A9F10809C9F80080521CD1F8008028FA57
:1004E00002F8B8F1000F7FF489AEBDE8F88700008C
:1004F000000011100010024000080140000C0140F3
:1005000000100140001401400800014008040140AF
:10051000014800687047000004000020034800689C
:100520000349097808440149086070470400002025
:100530000C00002010B50848006840F01000064983
:100540000860032000F0A8F80F2000F007F800F082
:100550002BF8002010BD00000020024070B50446BA
:100560000E4800784FF47A71B1FBF0F00C4909683D
:10057000B1FBF0F5284600F0F9FB08B1012070BD91
:10058000102C07D200222146501E00F047F80548E3
:10059000046001E00120F2E70020F0E70C000020F9
:1005A000100000200800002008B500BF1148806935
:1005B00040F001000F4988610846806900F00100A1
:1005C000009000BF00BF00BF0846C06940F08050E7
:1005D000C8610846C06900F08050009000BF00BFAD
:1005E00000BF0549486820F0E06040F000704860B6
:1005F00000BF08BD0010024000000140014608464F
:10060000002809DB00F01F0301229A4043099B00E8
:1006100003F1E023C3F8002100BF70472DE9F05F2C
:1006200080460D461646002701F02EFA0746394649
:100630002A46334601F00700C0F1070ABAF1040F59
:1006400002D94FF0040A01E0C0F1070AD14600F1D7
:10065000040ABAF1070F02D24FF0000A01E0A0F13C
:10066000030AD4464FF0010A0AFA09FAAAF1010A6C
:100670000AEA020A0AFA0CFA4FF0010B0BFA0CFB19
:10068000ABF1010B0BEA030B4AEA0B04214640468F
:1006900001F002FABDE8F09F00BF00F00702064B30
:1006A00019684FF6FF031940044B0B4343EA02213C
:1006B000014B196000BF70470CED00E00000FA0527
:1006C00070B504460D460CB9012070BD5A4800684B
:1006D00000F00700A8420ED25748006820F007003B
:1006E0002843554908600846006800F00700A84202
:1006F00001D00120E9E7207800F0020002281DD196
:10070000207800F00400042805D14C48406840F4EB
:10071000E0604A494860207800F00800082805D1C8
:100720004648406840F46050444948604348406847
:1007300020F0F000A168084340494860207800F0AC
:10074000010078B36068012806D13C48006800F4D5
:10075000003090B90120B8E76068022806D1374818
:10076000006800F0007040B90120AEE7334800682F
:1007700000F0020008B90120A7E73048406820F0E7
:100780000300616808432D494860FFF7C1FE064633
:1007900009E0FFF7BDFE801B41F28831884202D993
:1007A000032092E707E02548406800F00C006168EC
:1007B000B0EB810FEDD12048006800F00700A8429F
:1007C0000ED91D48006820F0070028431A49086028
:1007D0000846006800F00700A84201D0012074E735
:1007E000207800F00400042807D11448406820F461
:1007F000E060E168084311494860207800F0080093
:10080000082808D10D48406820F46050216940EA6A
:10081000C1000A49486000F03FF808494968C1F33F
:100820000311074A515CC840064908600648006841
:10083000FFF794FE002048E700200240001002402D
:10084000EE1C00081000002008000020014800688D
:10085000704700001000002000B5FFF7F7FF0449C3
:100860004968C1F30221034A515CC84000BD000041
:1008700000100240FE1C000800B5FFF7E7FF044926
:100880004968C1F3C221034A515CC84000BD000061
:1008900000100240FE1C000870B500210022002458
:1008A00000230020134D696801F00C05F5B1042DFB
:1008B00002D0082D19D101E00F4819E00F4DC1F306
:1008C0008346AB5D01F4803555B10A4D6D68C5F3C3
:1008D00040450B4E725D084D5D43B5FBF2F402E0FE
:1008E000084D03FB05F4204602E000BF024800BFAC
:1008F00000BF70BD0010024000127A00DC1C00082E
:10090000EC1C000800093D00F8B504460CB90120B4
:10091000F8BD207800F00100002878D0F848406841
:1009200000F00C0004280CD0F548406800F00C00E2
:10093000082811D1F248406800F48030B0F5803FBB
:100940000AD1EF48006800F4003000285FD06068EA
:1009500000285CD10120DBE700BF6068B0F5803F74
:1009600006D1E748006840F48030E549086028E097
:10097000606858B9E248006820F48030E0490860B7
:100980000846006820F4802008601AE06068B0F52E
:10099000A02F0BD1DA48006840F48020D8490860C5
:1009A0000846006840F4803008600AE0D4480068D7
:1009B00020F48030D24908600846006820F4802086
:1009C000086000BF606888B1FFF7A2FD054606E039
:1009D000FFF79EFD401B642801D9032098E7C84813
:1009E000006800F400300028F2D010E0FFF790FD1E
:1009F000054606E0FFF78CFD401B642801D9032063
:100A000086E7BF48006800F400300028F2D1207863
:100A100000F00200022857D1B948406800F00C00ED
:100A200050B1B748406800F00C00082818D1B4480D
:100A3000406800F4803098B9B148006800F00200C6
:100A400020B12069012801D0012061E7AC4800688D
:100A500020F0F800616940EAC100A949086033E06C
:100A60002069E8B10120A7490860FFF751FD05465C
:100A700006E0FFF74DFD401B022801D9032047E7A0
:100A80009F48006800F002000028F2D09C480068EF
:100A900020F0F800616940EAC1009949086013E05C
:100AA000002098490860FFF733FD054606E0FFF790
:100AB0002FFD401B022801D9032029E79048006838
:100AC00000F002000028F2D1207800F00800082889
:100AD0002DD1A069B8B101208B490860FFF718FD3E
:100AE000054606E0FFF714FD401B022801D903204C
:100AF0000EE78348406A00F002000028F2D001208F
:100B000000F062FD13E000207F490860FFF700FD60
:100B1000054606E0FFF7FCFC401B022801D9032034
:100B2000F6E67748406A00F002000028F2D120780B
:100B300000F00400042873D100277148C06900F058
:100B4000805070B900BF6E48C06940F080506C4959
:100B5000C8610846C06900F08050009000BF00BF27
:100B600001276A48006800F48070B0B967480068DF
:100B700040F4807065490860FFF7CAFC054606E04E
:100B8000FFF7C6FC401B642801D90320C0E65F487C
:100B9000006800F480700028F2D000BFE0680128EF
:100BA00006D15748006A40F001005549086227E025
:100BB000E06858B95248006A20F0010050490862C4
:100BC0000846006A20F00400086219E0E068052881
:100BD0000BD14B48006A40F00400494908620846BE
:100BE000006A40F0010008620AE04548006A20F00F
:100BF0000100434908620846006A20F004000862C8
:100C000000BFE068A0B1FFF783FC054609E0FFF7ED
:100C10007FFC401B41F28831884202D9032077E6ED
:100C200022E03748006A00F002000028EFD012E00E
:100C3000FFF76EFC054608E0FFF76AFC401B41F237
:100C40008831884201D9032062E62D48006A00F00D
:100C500002000028F0D1012F05D12948C06920F0F9
:100C600080502749C86100BFE069C8B32448406884
:100C700000F00C00082860D0E069022848D100206C
:100C800020490866FFF744FC054606E0FFF740FCF4
:100C9000401B022801D903203AE61948006800F0F9
:100CA00000700028F2D1206AB0F5803F07D11448C7
:100CB000406820F40030A168084311494860D4E935
:100CC000080108430E49496821F4741108430C498E
:100CD000486001200B490866FFF71AFC054607E04B
:100CE0003DE0FFF715FC401B022801D903200FE669
:100CF0000348006800F000700028F2D02FE00000E8
:100D00000010024000004242800442420070004055
:100D1000002014490866FFF7FBFB054606E0FFF7D5
:100D2000F7FB401B022801D90320F1E50E480068BB
:100D300000F000700028F2D111E0E069012800D134
:100D4000E6E50948466806F48031206A814204D10C
:100D500006F47011606A814201D00120D8E50020BC
:100D6000D6E50000000042420010024070B5044683
:100D70002546681EB0F1807F01D301200FE0681E78
:100D80004FF0E02148610F214FF0FF3000F084FE6A
:100D900000204FF0E021886107200861002070BD2D
:100DA00030B502460B4600BF92F83C00012801D145
:100DB000022030BD012082F83C0000BF022082F8F2
:100DC0003D00106844681068816824F07004186859
:100DD000044310684460104D1068A8420BD010689E
:100DE000B0F1804F07D00D4D1068A84203D00C4DD4
:100DF0001068A84205D121F08001586801431068AD
:100E00008160012082F83D0000BF002082F83C0094
:100E100000BF00BFCDE70000002C014000040040EF
:100E20000008004010B504460CB9012010BD94F82C
:100E30003D0028B9002084F83C00204600F026F848
:100E4000022084F83D00211D206800F0FFFB0120F6
:100E500084F8460000BF84F83E0001213F20015580
:100E6000402001554120015500BF00BF012084F8FA
:100E7000420043200155442001554520015500BF43
:100E8000012084F83D000020D0E7000008B5094AA1
:100E9000016891420DD100BF0749C96941F00201C3
:100EA000054AD1611146C96901F00201009100BFF4
:100EB00000BF08BD00040040001002402DE9F041D1
:100EC00004460D46002700BF94F83C00012802D1DB
:100ED0000220BDE8F081012084F83C0000BF022020
:100EE00084F83D002068866826F0770626F47F4661
:100EF000206886602868502833D00CDC202850D029
:100F000004DC00284BD0102851D149E0302849D0CA
:100F100040284CD139E060282DD0702807D0B0F59A
:100F2000805F03D0B0F5005F41D10DE041E0D5E92D
:100F300002136A68206800F0D4FB2068866846F0D7
:100F400077062068866034E0D5E902136A68206875
:100F500000F0C7FB2068806840F48040216888600A
:100F600027E0EA686968206800F08CFC502120685E
:100F700000F0C2FB1DE0EA686968206800F095FC9B
:100F80006021206800F0B8FB13E0EA686968206817
:100F900000F078FC4021206800F0AEFB09E000BFC3
:100FA00000BF00BF2968206800F0A6FB01E0012710
:100FB00000BF00BF012084F83D0000BF002084F87E
:100FC0003C0000BF384684E710B586B004460020D8
:100FD00002900390049005900E492068884216D133
:100FE00000BF0D48806940F004000B498861084645
:100FF000806900F00400019000BF00BF4020029013
:1010000002200390059002A90448FFF7F1F806B00A
:1010100010BD000000040040001002400008014024
:1010200070B504460D4615B994F83E000BE0042D4A
:1010300002D13F20005D06E0082D02D14020005D76
:1010400001E04120005D012801D0012070BD1DB9E3
:10105000022084F83E000EE0042D03D102213F203F
:10106000015508E0082D03D102214020015502E07E
:1010700002214120015501222946206800F020FB71
:1010800019492068884201D1012000E0002028B1E0
:101090002068406C40F40040216848641249206890
:1010A00088420BD02068B0F1804F07D00F492068EC
:1010B000884203D00E49206888420CD1206880689D
:1010C00000F00706062E0CD02068006840F00100F2
:1010D0002168086005E02068006840F00100216890
:1010E00008600020B2E70000002C0140000400402E
:1010F000000800402DE9F04104460D461646002741
:1011000000BF94F83C00012802D10220BDE8F08124
:10111000012084F83C0000BF36B1042E1BD0082EFD
:1011200031D00C2E5ED145E02946206800F0EEFA61
:101130002068806940F00800216888612068806923
:1011400020F00400216888612068806929690843CB
:101150002168886148E02946206800F007FB206884
:10116000806940F40060216888612068806920F40B
:1011700080602168886120688069296940EA0120CF
:101180002168886130E02946206800F023FB206850
:10119000C06940F008002168C8612068C06920F07B
:1011A00004002168C8612068C06929690843216872
:1011B000C86119E02946206800F040FB2068C0693A
:1011C00040F400602168C8612068C06920F4806034
:1011D0002168C8612068C069296940EA0120216846
:1011E000C86101E0012700BF00BF00BF002084F8F4
:1011F0003C0000BF384689E710B504460CB9012011
:1012000010BD94F83D0028B9002084F83C00204629
:1012100000F025F8022084F83D00211D206800F030
:1012200015FA012084F8460000BF84F83E00012131
:101230003F200155402001554120015500BF00BF0E
:10124000012084F8420043200155442001554520E7
:10125000015500BF012084F83D000020D0E7704711
:1012600010B504460CB9012010BDA06900B100E022
:1012700000BF94F8410028B9002084F840002046BF
:1012800000F02AF8242084F841002068C06820F487
:1012900000502168C860204600F01CFB20680069EF
:1012A00020F49040216808612068406920F02A00FD
:1012B000216848612068C06840F400502168C86017
:1012C00000206064202084F8410084F8420000205F
:1012D000606300BFC8E7000010B586B00446002078
:1012E00002900390049005901A49206888422ED1FC
:1012F00000BF1948806940F480401749886108465A
:10130000806900F48040019000BF00BF00BF084624
:10131000806940F0040088610846806900F004009C
:10132000019000BF00BF48150290022003900320E7
:10133000059002A90948FEF75BFF4FF48060029018
:1013400000200390049002A90448FEF751FF06B064
:1013500010BD0000003801400010024000080140AC
:101360002DE9F84F04460E46174699464FF0000AFD
:1013700094F8410020284AD106B117B90120BDE8F0
:10138000F88F00206064212084F84100FFF7C0F846
:101390008246A784E784A068B0F5805F04D1206905
:1013A00010B90025B04602E035464FF000081BE0BA
:1013B0005346002280212046CDF8009000F008FB23
:1013C00008B10320DBE745B9B8F80000C0F3080016
:1013D0002168486008F1020803E028782168486025
:1013E0006D1CE08C401EE084E08C0028E0D1534668
:1013F000002240212046CDF8009000F0E9FA08B123
:101400000320BCE7202084F841000020B7E7022039
:10141000B5E700BFFEE7000000B585B000200190F1
:1014200002900390049000BF2648806940F020009D
:10143000244988610846806900F02000009000BFC0
:1014400000BF00BF0846806940F00400886108467C
:10145000806900F00400009000BF00BF00BF084694
:10146000806940F0080088610846806900F0080043
:10147000009000BF00BF022001901348029001209D
:10148000039001A91148FEF7B3FE802001900E4899
:1014900002900120039001A90D48FEF7A9FE002249
:1014A00011460720FFF7BAF80720FFF7A7F8002238
:1014B00011461720FFF7B2F81720FFF79FF805B085
:1014C00000BD0000001002400000111000080140A3
:1014D000000C014000B58DB0002009900A900B90DF
:1014E0000C90079008901C216846FEF722FE2348C6
:1014F000234908604720486000212148816040F26C
:10150000E731C1600021016180218161FFF78AFC20
:1015100008B1FEF74EFE4FF48050099009A9184813
:10152000FFF7CCFC08B1FEF744FE1548FFF764FE58
:1015300008B1FEF73EFE00200790089007A910486A
:10154000FFF72EFC08B1FEF734FE6020009000206B
:101550000190022002900020049000226946084871
:10156000FFF7C8FD08B1FEF724FE00210448FFF78D
:1015700057FD0348FFF728FD0DB000BD00040040F3
:101580001800002010B50B480B4908604FF4E130FB
:101590004860002108488160C16001610C214161FF
:1015A00000218161C161FFF75BFE08B1FEF701FE1A
:1015B00010BD0000003801406000002000BFFEE7C1
:1015C00000BFFEE77047000008B508490968C90870
:1015D0004FF47A72B1FBF2F14143009100BF00BFBA
:1015E00000994A1E00920029F9D108BD1000002080
:1015F000704710B5FEF792FF10BD00B58FB02821DF
:1016000005A8FEF796FD14216846FEF792FD02201C
:1016100005900120099010200A9000200C9005A848
:10162000FFF772F908B1FEF7C4FD0F20009000200B
:10163000019002900390049000216846FFF740F863
:1016400008B1FEF7B6FD0FB000BD704710B50268D7
:10165000184B984208D0B0F1804F05D0164B9842F5
:1016600002D0164B984203D122F070024B681A4305
:10167000104B984208D0B0F1804F05D00E4B9842E5
:1016800002D00E4B984203D122F44072CB681A4329
:1016900022F080034C6943EA040202608B68C36253
:1016A0000B688362034B984201D10B6903630123EA
:1016B000436110BD002C01400004004000080040C0
:1016C00030B501F01F05012404FA05F3046A9C43B8
:1016D0000462046A01F01F0502FA05F52C43046256
:1016E00030BD30B50C46816821F47F4142EA0325C4
:1016F00025432943816030BD0A46816821F070018D
:1017000042F00703194381607047000030B5026A58
:10171000056A25F0010505624368846924F07004B8
:1017200024F003040D682C4322F002028D682A4342
:101730000D4DA84206D100BF22F00802CD682A4311
:1017400022F00402084DA84207D123F4807323F449
:1017500000734D692B438D692B43436084614D6851
:101760004563026230BD0000002C014030B5026AC2
:10177000056A25F0100505624368846924F4E04495
:1017800024F440740D6844EA052422F020028D6898
:1017900042EA05120E4DA84207D100BF22F0800296
:1017A000CD6842EA051222F04002094DA84209D153
:1017B00023F4806323F400634D6943EA85038D6954
:1017C00043EA8503436084614D688563026230BDEE
:1017D000002C014030B5026A056A25F48075056267
:1017E0004368C46924F0700424F003040D682C439A
:1017F00022F400728D6842EA05220F4DA84207D1FB
:1018000000BF22F40062CD6842EA052222F4806221
:10181000094DA84209D123F4805323F400534D69A4
:1018200043EA05138D6943EA05134360C4614D68BB
:10183000C563026230BD0000002C014030B5036A70
:10184000056A25F4805505624468C26922F4E042C5
:1018500022F440720D6842EA052223F400538D6899
:1018600043EA0533064DA84204D124F480444D696F
:1018700044EA85144460C2614D680564036230BD6A
:10188000002C014030B50B461446026A056A25F06B
:1018900001050562816921F0F00141EA041122F09D
:1018A0000A021A438161026230BD30B50B4614460C
:1018B000026A056A25F010050562816921F470410C
:1018C00041EA043122F0A00242EA0312816102627D
:1018D00030BD000070B504462168096921F440510B
:1018E000E2681143226811612269A16811436269AB
:1018F00041EA02052168C96841F20C62914329431B
:101900002268D1602168496921F44071A2691143BC
:10191000226851612D4A2168914202D1FEF7ACFF45
:1019200001E0FEF799FF00EBC00101EB00116268D6
:101930009200B1FBF2F100EBC00202EB001263680F
:101940009B00B2FBF3F26423B2FBF3F202EBC2039F
:1019500003EB0212A1EB8201322202EB011164229D
:10196000B1FBF2F101F0F00100EBC00202EB00125A
:1019700063689B00B2FBF3F26423B2FBF3F201EB6A
:10198000021200EBC00101EB001163689B00B1FB88
:10199000F3F100EBC00303EB00136668B600B3FB82
:1019A000F6F36426B3FBF6F303EBC30606EB03136F
:1019B000A1EB8301322303EB01116423B1FBF3F1AB
:1019C00001F00F0111442268916070BD00380140A0
:1019D0002DE9F04104460D4617469846069E34E030
:1019E000701C88B32EB1FEF793FDA0EB0800B04247
:1019F0002BD900BF00BF21680C3151E8001F21F432
:101A0000D07021680C3141E80002002AF3D100BFF8
:101A100000BF00BF2168143151E8001F21F0010010
:101A20002168143141E80002002AF3D100BF2020D0
:101A300084F8410084F8420000BF002084F8400090
:101A400000BF0320BDE8F081FFE720680068284060
:101A5000A84201D1012000E00020B842C0D00020FF
:101A6000F0E700BFFEE700000FB4054B10B503A977
:101A7000044A029800F034F810BC5DF814FB000032
:101A8000351C00081400002002480068C0F3022042
:101A9000704700000CED00E010B5002804DB0A07D9
:101AA000130E054A135406E00A07140E034A00F009
:101AB0000F031B1FD45410BD00E400E018ED00E03C
:101AC00002E008C8121F08C1002AFAD17047704707
:101AD000002001E001C1121F002AFBD17047000065
:101AE0002DE9FF4F89B09B460446002506E02528D6
:101AF0000BD05A460B999047641C6D1C2078002827
:101B0000F5D10DB02846BDE8F08F0027B846012278
:101B1000474900E0074314F8013F203B02FA03F075
:101B20000842F7D120782E2819D114F8010F47F078
:101B300004072A280ED06FF02F022078A0F1300180
:101B400009290CD808EB880102EB410100EB0108E0
:101B5000641CF2E70A98641C50F8048B0A90207801
:101B60000028CED0642808D0692806D075281ED059
:101B70005A460B9990476D1C58E00A994FF00A0994
:101B800001C90A91002802DA40422D2102E03905FC
:101B900004D52B218DF82010012103E0F90704D092
:101BA0002021F7E78A4608AE0DE00021FAE70A99FE
:101BB0004FF00A0901C90A91F7E74946FEF7C4FA4E
:101BC000303106F8011D0028F7D1ADEB060000F119
:101BD0002009780701D44FF00108C84502DDA8EBC1
:101BE000090000E000208046002706E008A85A46C9
:101BF000C05D0B9990476D1C7F1C5745F6DB04E0D8
:101C000030205A460B9990476D1CB8F10001A8F19D
:101C10000108F5DC05E016F8010B5A460B999047D0
:101C20006D1CB9F10001A9F10109F4DC641C65E740
:101C30000928010013B50C464FF6FF7301226946CF
:101C40000248FFF78DFB00981CBD000060000020DB
:101C5000FEF770FCFFF7D1FCFFF7DEFBFFF73AFC65
:101C6000FFF790FC29E015480088B0F57A7F02DD87
:101C700000201249088012480078012808D100206D
:101C80000F4908700D48008864300C4908800BE04B
:101C90000B480078022807D100200949087007483E
:101CA00000886438054908800448008800F010F86E
:101CB0000248018803A0FFF7D7FED4E70000002008
:101CC00002000020647574793A25640A000000005F
:101CD00001490968486370471800002002030405A1
:101CE000060708090A0B0C0D0E0F10100102000068
:101CF00000000000000001020304060708090000BC
:101D00000000010203040000281D0008000000205C
:101D100018000000C01A0008401D0008180000202C
:101D200090040000D01A000800000000000000002D
:101D300010000000010000000024F400000000007A
:04000005080000ED02
:00000001FF
